S02500006D61747465722D73696C6162732D6C69676874696E672D6578616D706C652E733337FB
S3150800600000120020F16A01080725090851330A0819
S3150800601091BA080807250908072509080725090860
S3150800602007250908072509080725090841640008FE
S31508006030072509089C050220D1630008C5BF080882
S315080060409182000807250908072509080725090870
S31508006050072509080725090807250908072509083E
S31508006060072509080725090807250908F1C00208B0
S31508006070072509080725090807250908072509081E
S31508006080072509080725090807250908072509080E
S31508006090072509083D88000807250908072509086E
S315080060A007250908218A0008F9890008072509082B
S315080060B007250908690F0808F9190808DDF30D0806
S315080060C0D9F30D089D110808E9F30D08E1F30D0849
S315080060D0CD190808E5F30D08391A0808A51A08089D
S315080060E007250908072509080725090807250908AE
S315080060F08742090807250908072509080725090801
S31508006100072509080725090807250908072509088D
S31508006110072509080725090807250908072509087D
S31508006120072509080725090807250908072509086D
S31508006130072509080725090807250908072509085D
S3150800614007250908A96D0108072509081D43090837
S3150800615031F50708072509087FF30D0885F30D08AB
S31508006160072509080725090807250908072509082D
S31508006170194A5AB3194BDB6913F0040F29D110B425
S315080061800AE003EA00048C4210D0013AB2B1134B7C
S31508006190DB6913F0040F14D110F0010FF1D1104C84
S315080061A01C40002CEDD06FF001000CE00C4A1A40A0
S315080061B00AB9002007E06FF0010004E06FF0020062
S315080061C001E04FF0FF305DF8044B70476FF00200B6
S315080061D070474FF0FF3070478096980000000350D4
S315080061E0020001000D4BDB6913F4803F12D170B534
S315080061F00A4B03F580560124F46003F500552C6418
S315080062004FF480721A6100212046FFF7B1FF34640B
S31508006210EC6070BD6FF00100704700BF00000350CE
S3150800622010B5124B4FF480329A6603F51C33DC69BD
S31508006230144041F67132DA6303F580520121D160C8
S31508006240586102221A6100212120FFF791FF40B10F
S31508006250074B0122DA601CB1A3F500530022DA636A
S3150800626010BD00212120FFF783FFF1E700900050C1
S315080062700020035038B51A4B5861DB6913F0040F38
S315080062802AD10C4654F8041B154B9961151F06E0D4
S31508006290214651F8042B124B9A61043D0C465DB118
S315080062A008210846FFF764FF03460028F0D00C4A89
S315080062B004211161184638BD094B04221A610021D0
S315080062C02120FFF755FF03460028F3D1002121209E
S315080062D0FFF74EFF0346EDE74FF0FF33EAE700BF4F
S315080062E0000003502DE9F0410F46164605461A4BA5
S315080062F04FF480329A6603F51C33DA6902F4803863
S3150800630041F67132DA6303F580530122DA6000231D
S3150800631002E025442744361B8EB105F5005424F4C3
S31508006320FF5424F01F04641BB44228BF3446224697
S3150800633039462846FFF79EFF03460028E9D0074A54
S315080063400121D160B8F1000F03D0A2F50052002157
S31508006350D1631846BDE8F081009000500020035034
S315080063600B4A1168086806C881F30B88022181F375
S315080063701488203080F30988BFF36F8F4FF0000030
S3150800638080F31188104700BFAFF30080AFF3008099
S31508006390CC2C0120000000000000000000000000D6
S315080063A007480068006880F3088862B661B6BFF3DC
S315080063B04F8FBFF36F8F02DF00BF00BFAFF30080C0
S315080063C008ED00E0000000000000000000000000EA
S315080063D0EFF309801EF0100F08BF20ED108AEFF3C7
S315080063E00B82734620E9FC0F114A116808604FF0CA
S315080063F0300080F31188BFF34F8FBFF36F8F08F01B
S3150800640059FF4FF0000080F31188094A116808689F
S31508006410B0E8FC0F13F0100F08BFB0EC108A82F337
S315080064200B8880F309881847AFF30080AFF3008024
S31508006430CC2C012000000000000000000000000035
S315080064401EF0040F0CBFEFF30880EFF30980044930
S31508006450084700BFAFF30080AFF30080AFF30080BA
S31508006460CDAF01080000000000F130030022002A29
S3150800647003DA00F14003002114E000215970D970B5
S3150800648059609FED337B83ED027B013A1033EEE7CB
S3150800649000225A70DA705A609FED2D7B83ED027BDD
S315080064A0013910330029F3DA00F150030022002ADB
S315080064B003DA00F19003002114E000219970997124
S315080064C099609FED237B83ED047B013A1833EEE751
S315080064D000229A709A719A609FED1D7B83ED047B6A
S315080064E0013918330029F3DA00F1A8030022002A3B
S315080064F003DA00F1D803002114E00021997099719C
S3150800650099609FED137B83ED047B013A1833EEE720
S3150800651000229A709A719A609FED0D7B83ED047B39
S31508006520013918330029F3DA00F1F8030022002AAA
S3150800653000DA704700219970997199609FED047B84
S3150800654083ED047B013A1833F1E700BFAFF300800F
S31508006550000000000000000082B000228DF8012033
S31508006560BDF8001001854185C2629FED097B80ED6B
S315080065700C7B019201218DF8061001998163C16394
S31508006580026480ED127B02B0704700BFAFF3008053
S31508006590000000000000000008B59FED077B80EDB5
S315080065A0007B00228260C26001744274114625F0A5
S315080065B0EFF808BDAFF300800000000000000000FF
S315080065C010B5154C20600022626004F11003A36028
S315080065D0124B1A600B221A711A225A7127F0DEF82A
S315080065E0204627F093FF0E4B186068B108A3D3E93D
S315080065F000234FF0FF304FF0FF3127F0D3FF002183
S31508006600064827F0E1FF10BDFEE700BFAFF30080A4
S315080066100BE020FFE2030000B0940120A8940120BB
S31508006620A094012000000000F0B589B0022027F0F0
S3150800663077FD00B9FEE7684B1B68002B51D0102088
S3150800664027F06EFD644C23681B798DF81F30634D67
S3150800665001231A460DF11F012868D8F03BF9216875
S315080066609DF81F20023A002392B209682868D8F0DC
S3150800667031F904AB5A4A07CA83E8070023681B683E
S315080066801B7813F0200F2DD10024544B1868D7F02F
S3150800669078FF002849D19DF81F200632069B03EB98
S315080066A0421306934C4B1A685369002B6DD1102080
S315080066B027F036FD00285ED0069B03F5FA7306938D
S315080066C0454B1A68117E474B997047490978D97026
S315080066D0917904AA0092224640480068D7F0A5FCA2
S315080066E067E0FEE72868D7F030FF20B9069BC0337D
S315080066F006930124C9E72868D7F027FF82F050FAE5
S3150800670002460B4630A1D1E9000182F0EDFB0446B2
S315080067100D46069882F044FA22462B4682F004F982
S3150800672082F052FD06900124AFE79DF81F0006305F
S31508006730C00082F045FA26A3D3E9002382F0AAFA1C
S3150800674006460F46254B1868D7F01BFF82F028FA35
S3150800675002460B463046394682F0C6FB06460F46C9
S31508006760069882F01DFA32463B4682F0DDF882F042
S315080067702BFD069096E7184B196804AB22468979D3
S3150800678016480068D7F03BFC13E011690B44A03BA0
S31508006790029300238DF80C308DF80D30917904ABF7
S315080067A00193124B009302AB22460C480068D7F0BF
S315080067B047FC08B909B0F0BD4FF48051002027F016
S315080067C019FE8BF050FCF5E70000000060E3664117
S315080067D00000000080842E414C950120A0940120E1
S315080067E020BC0E080C060220B10802200006022072
S315080067F0F0B591B006460C4610468B680B2B00F296
S31508006800A680DFE803F006A426A436A44862A4748A
S31508006810849400230493059304A99EF085F90546FC
S3150800682088B100202F4605B958B90023852221468C
S31508006830304690F01AFF3B46514A02211D209CF033
S3150800684004FF11B0F0BD04AA214630461DF03AFFF8
S31508006850E8E700238DF8103004A99EF06CF9054688
S3150800686008B10020DEE704AA214630461DF09AFE4C
S31508006870D8E70023049305938DF8183004A99EF0F1
S3150800688061F9054608B10020CCE704AA214630463E
S315080068901EF018F8C6E70023049305938DF8183000
S315080068A009930A939FED347B8DED0C7BADF8383058
S315080068B004A99EF04EF9054608B10020B2E704AADD
S315080068C0214630461DF080FCACE70023049305936F
S315080068D08DF8183004A99EF043F9054608B1002042
S315080068E0A0E704AA214630461DF098FB9AE7002344
S315080068F00493059304A99EF03AF9054608B10020C9
S3150800690090E704AA214630461DF008FB8AE70023D3
S315080069108DF8103004A99EF031F9054608B100201B
S3150800692080E704AA214630461DF07CFA7AE7002360
S315080069300493059304A99EF028F9054608B100209A
S3150800694070E704AA214630461DF068F96AE7002375
S315080069508122304690F089FEA3686268110C92B2D3
S31508006960029201919AB200921B0C064A01211D203F
S315080069709CF06BFE65E700BF000000000000000009
S3150800698088BC0E0854BC0E08F0B585B004460E4601
S3150800699015461F461EA3D3E9002382F085FC1E4B2D
S315080069A0A3424FF00003B3411AD303941B4903A82B
S315080069B0A2F0CAFD04464EF6602103A8A2F0C4FD63
S315080069C006464FF47A7103A8A2F0BEFD009033463E
S315080069D0224613492846A2F066FC7FB905B0F0BDE9
S315080069E0024610492846A2F05EFC09A3D3E9002313
S315080069F02046314682F058FC1446D6E7BDF80C20EE
S31508006A0009492846A2F04FFCE8E700BFAFF300802B
S31508006A10005C260500000000FF5B260580EE3600B8
S31508006A2068CB0E0860CB0E0878CB0E080000000075
S31508006A304FF0FF310160002242609FED077B80ED39
S31508006A40047B8261C26102624262826280F82C1013
S31508006A50C18580F830207047000000000000000063
S31508006A6000B583B09DF8101049B109219FED067B4A
S31508006A708DED007BB6F0A9FC03B05DF804FB082198
S31508006A80F4E700BFAFF3008000000000000000003C
S31508006A9000B583B09FED047B8DED007B1421B6F025
S31508006AA094FC03B05DF804FB000000000000000041
S31508006AB0012800D0704708B54FF6FF73994200D0F9
S31508006AC008BD0F480F4B03600F4B0360002343605C
S31508006AD083600322C260036143619FED077B80EDFB
S31508006AE0067B80F8203080ED0A7B8363074A0849D5
S31508006AF0DCF0DAFAE4E700BF00000000000000005E
S31508006B0090740020A0D60E0804D70E0848FE01206F
S31508006B103987040800000000016002719DED007BC2
S31508006B2080ED027B002202749FED0D7B80ED067BD3
S31508006B3080F8202080ED0A7B80ED0C7B8263C2639F
S31508006B40012180F8401080F8482080F8492080ED1F
S31508006B50147B8265C265026680F86420704700BFB0
S31508006B6000000000000000000022026001210172FE
S31508006B709FED077B80ED047B0276C2610284426248
S31508006B8080ED0A7B80F83020704700BFAFF30080A5
S31508006B900000000000000000002202809FED027B3A
S31508006BA080ED027B026170470000000000000000D3
S31508006BB008B5074B18680368D96903A3D3E9002306
S31508006BC0884708BDAFF3008000E0373B015D03004E
S31508006BD044060220000000000A7B9FED037B80ED3F
S31508006BE0007B0272704700BF000000000000000032
S31508006BF09FED037B80ED007B704700BFAFF30080FD
S31508006C0000000000000000009FED037B80ED007B84
S31508006C1000220272704700BF00000000000000005A
S31508006C20002303704370837000F108030E2207E007
S31508006C309FED0D7B83ED007B00219960013A1833A7
S31508006C40002AF5DA00F5B873012207E09FED067B06
S31508006C5083ED007B00219960013A1833002AF5DAA2
S31508006C60704700BFAFF3008000000000000000007E
S31508006C70002303704370202383700123C37000F13F
S31508006C80080300F1280203E09FED097BA3EC027BD1
S31508006C909342F9D100F12803403004E04FF0FF3267
S31508006CA01A605A6008338342F8D17047AFF3008000
S31508006CB000000000000000002DE9F0472DED028BD2
S31508006CC0CCB005460E461F4600200021CDE92A0114
S31508006CD0CDE92C0100248DF8B8402F94CDE9300178
S31508006CE09D4B32939D4B32934FF6FF73ADF810319F
S31508006CF08DF812418DF81341289429949046002A5C
S31508006D0062D02C4605F53472944210D094F881303E
S31508006D1073B123686168013B41F1FF316FF00100EF
S31508006D2098426FF010038B4102D39034ECE70024AD
S31508006D30002C47D0BDF85C31ADF810318DF8B8603D
S31508006D409FED838B864B2693864B269300222792AC
S31508006D50814B1493814B14930B920C920D924FF422
S31508006D60C8710BA896F0FEF80B9B002B4DD04FF47C
S31508006D70C8710CA896F0F6F80C9B002B6AD04FF455
S31508006D80C8710DA896F0EEF80D9B002B64D00B9AEF
S31508006D900E924FF4C8710F91002A5FD00C9A109288
S31508006DA04FF4C8711191002A5AD012934FF4C87340
S31508006DB013930EAA31462846C4F007FE002851D080
S31508006DC0044623E00B243BE031462846C4F08EFDFA
S31508006DD08146C0B105F534742046C4F08CFFB9F875
S31508006DE08230ADF810318DF8B86099ED028B0DF14F
S31508006DF0200A4946504697F016FA28AB9AE8030047
S31508006E0083E803009EE7AC241AE00B240D9818B11A
S31508006E1044F0C0F800230D930C9818B144F0BAF862
S31508006E2000230C930B9818B144F0B4F800230B9385
S31508006E304A4B1493484B14934A4B2693484B269334
S31508006E40464B3293444B329320464CB0BDEC028BF2
S31508006E50BDE8F0870B24D9E70B24D7E7DCF02EFB37
S31508006E60DCF02CFB10AA31462846C4F08FFD08B189
S31508006E700446CBE712AA31462846C4F063FD08B19A
S31508006E800446C3E70EA946A894F0C7FD10A948A86A
S31508006E9094F0C3FD12A94AA894F0BFFD32AB07933C
S31508006EA014AB06932CAB059330AB04932AAB039330
S31508006EB026AB02938DED008B4AAA48A946A852F044
S31508006EC067FA08B10446A1E70D9818B144F062F8CC
S31508006ED000230D930C9818B144F05CF800230C932A
S31508006EE00B9818B144F056F800230B93E7B13B68AA
S31508006EF05B693846984714A997F044F908B9C52438
S31508006F0096E72F979DF858318DF812319DF8603124
S31508006F10B3FA83F35B098DF813312AA92046C5F025
S31508006F2015F868B3044683E7D5F8640330B30368F5
S31508006F309B689847C0B1D5F8640303685B6914AACF
S31508006F40314698470028E1D0044671E7AFF3008040
S31508006F500000000000000000C0950E0880F80E082A
S31508006F60D8460F08EC460F08D5F864030368DB68B3
S31508006F70314698470028C9D1102459E7032457E712
S31508006F8028A92046C4F048FCB8F1000F23D094F88D
S31508006F9081301A4A022111209CF057FB2269636945
S31508006FA020686168029001910092154A0221112019
S31508006FB09CF04BFB279905F55D7055F055FF034688
S31508006FC0A8B9B8F1000F04D095F88233013385F8D3
S31508006FD0823300242CE794F8813021686268019195
S31508006FE00092084A022111209CF02FFBE2E7064A8C
S31508006FF0012111209CF029FBE3E700BF00460F089A
S3150800700020460F0864460F089C460F08000000003B
S315080070102DE9F0438BB005460C460DF11F0301938D
S31508007020152300934FF4807200230846B6F07AFBC6
S3150800703010B10BB0BDE8F08395F8923000930122A9
S3150800704000232046B6F0F0FA0028F2D195F89330DE
S315080070500093022200232046B6F0E6FA0028E8D17B
S315080070600DF10A03019316230093032200232046F9
S31508007070B6F058FB0028DCD105F1980605F594779B
S315080070804FF000092EE04FF000099FED397B8DED9A
S31508007090007B042200232046B6F098FA0028C8D1BF
S315080070A0CDF80090052200232046B6F0BDFA002848
S315080070B0BFD103AB0893102309930AAB13E9030066
S315080070C08DE80300062200232046B6F010FC0028AF
S315080070D0AFD19DF90B102046B6F05DFB0028A8D16C
S315080070E03036C146BE422AD0002303930493059343
S315080070F006930DF10B030193152300934FF4807249
S3150800710000232046B6F00EFB002892D109F10108AB
S315080071105FFA88F895F893304B45B4D996ED007B1D
S31508007120B6F808900DF10C0CD6F80A00D6F80E1031
S31508007130D6F81220D6F81630ACE80F00A7E79DF966
S315080071400A102046B6F027FB00287FF472AFB5F880
S315080071508A300093072200232046B6F065FA0028F5
S315080071607FF467AF9DF91F102046B6F014FB60E761
S3150800717000000000000000002DE9F04104460E461C
S3150800718017463F4B03603F4B43603F4B03602C332E
S31508007190436000F1080800258560C5600561456102
S315080071A08561C56180F82050056345639FED327B94
S315080071B080ED0E7B80F84050344B00F1480C0FCB25
S315080071C08CE80F00012384F8583041F2A453A4F840
S315080071D05A30E56584ED187BE56625672C4BA36672
S315080071E084F8745004F17C03C4F88030E367C4F86B
S315080071F0845004F190005CF041FB84F8F85084F860
S31508007200F950244904F1FA00C8F034FB84F8FC501C
S3150800721084F8FD5084F8FE5084F8FF5084F8005135
S3150800722004F58273C4F80831C4F80431C4F80C5163
S3150800723031464046C6F052FD3046C6F0FEFCA0B9BF
S315080072409FB10A9B8BB1276306AB03CBA063E163AF
S315080072501B7884F840300A9BC4F88830012384F8E8
S31508007260F830231DC4F89C3002E0002384F8F83077
S315080072702046BDE8F08100BF0000000000000000C5
S3150800728020650F0844650F087C650F0804E5012092
S31508007290802F0F083CB60E0830B587B00446C37871
S315080072A0012B2AD18378042B2CD190F8B9306BB3F3
S315080072B0274B0093002301939FED237B8DED027BE3
S315080072C00A6805920B6005A96846CBF0C0FF05461B
S315080072D0059808B12AF008FA00230593D5B9D4F819
S315080072E0A030019A9A421AD0172120465EF02CFA4D
S315080072F0174B0093174B009302E018215EF024FA0F
S3150800730007B030BD18215EF01FFAF9E718215EF0C4
S315080073101BFAF5E7162120465EF016FAE8E706237B
S315080073202380002384F8B930019BC4F8A430DDE932
S315080073300223C4E92423152168465EF0E3FF044BC3
S315080073400093044B0093DBE70000000000000000F8
S31508007350C08B0F087C890F0830B58FB0044680783B
S3150800736018B1032420460FB030BDE170C4F8AC3024
S31508007370137823715388E38092ED027B84ED047BB6
S31508007380D2E90401C4E906012B4B00932B4B009369
S3150800739000238DF804308DF805308DF80630ADF8E9
S315080073A008309FED236B8DED046B8DED066B08930E
S315080073B0ADF824300A930B930C9313788DF80430A8
S315080073C0E388ADF808308DED047BCDE906019369B5
S315080073D00893938BADF82430136A0A93536A0B9378
S315080073E004F124016846CBF031FB20B10446684617
S315080073F05EF008FBB6E7E578012D00D00425104AB3
S31508007400042126209CF021F9294668465EF0B4FF3F
S315080074100223A370012384F8B93004F188022146B7
S315080074202846CBF0BDF90024E1E700BFAFF30080A2
S3150800743000000000000000007C890F08208B0F0860
S3150800744008890F08000000002DE9F047D0B006466D
S315080074500D460E2214AB09E09FED657B83ED007B9C
S315080074604FF0000C83F808C0013A1033002AF3DA0B
S315080074703368DB6912A9304698470446002840F06D
S31508007480A28000220D9202AB029203920492326805
S315080074900093176B05AB0EAA29463046B84788B93C
S315080074A033689B6A0EA93046984768B1A0280BD066
S315080074B02A68019000926B684F4A01210B209CF0C4
S315080074C0C4F801E0A0280BD133685B6B2946304627
S315080074D09847824608B1A0280CD14FF0000921E050
S315080074E02A68019000926B68444A01210B209CF09F
S315080074F0ACF8E9E72B68019000936B68404A0121D4
S315080075000B209CF0A2F8E8E750AA02EB041252F806
S31508007510F01C52F8EC2C2F686868824208BFB94202
S315080075201DD00134129BA3423FD9B9F1000FEBD00D
S31508007530631C12A91B01083301EB030E2201083252
S3150800754001EB020C51F80380DEF8043041F80280A2
S31508007550CCF804309EF808308CF80830E1E7621C55
S3150800756050A901EB021212F8F81C2A7A9142D8D1D6
S31508007570621C9A4214D212A81201083200EB020EBB
S315080075802101083100EB010C50F80280DEF80420D6
S3150800759040F80180CCF804209EF808208CF80820D2
S315080075A0013B12934FF00109BBE7B9F1000F14D064
S315080075B033689B6912A930469847034638B90024B0
S315080075C005A8C1F083FB204650B0BDE8F0870D4AF8
S315080075D001210B209CF039F8F1E72B68CDF804A0BF
S315080075E000936B68084A01210B209CF02EF8E6E709
S315080075F0000000000000000064A60F08A8A60F08F7
S3150800760004A70F0848A70F0878A70F08000000006E
S315080076109FED037B80ED007B00220272704700BF5E
S3150800762000000000FBFFFFFFA1F10801F0E700BF23
S315080076309FED037B80ED007B00220272704700BF3E
S315080076400000000000000000A1F10801F0E700BFFB
S3150800765010B58CB00F9C14B900200CB010BD8DF875
S3150800766018009FED0B7B8DED087B00200A900E9885
S3150800767005900493039202910CAB13E903008DE87D
S31508007680030006AB0FCBD2F037F8E6E7AFF300807E
S31508007690000000000000000070B58AB08446144659
S315080076A01D46EE460FC98EE80F0001268DF81060BC
S315080076B041F2A453ADF81230002305939FED0C7BDD
S315080076C08DED067BADF812402D68099505959EE867
S315080076D00F008CE80F008CF81060ACF81240CCF85C
S315080076E014508CED067B60460AB070BDAFF300807F
S315080076F0000000000000000010B588B000230093C9
S3150800770001930293039302218DF8101041F2A451BC
S31508007710ADF8121005939FED067B8DED067B40684C
S3150800772001688C686946A04708B010BDAFF30080B1
S315080077300000000000000000002370B5404C05461C
S315080077408AB0E36318B1008823607AF0DFFD3D480C
S31508007750D6F0BDFE3C4E3D4B304633603C4B736025
S315080077607BF072F80021304670F086FB32A3D3E92D
S315080077700023A062C4E90623D7F0EFFED4E9062366
S3150800778019431043C4E90601CDE900014FF0FF3360
S315080077904FF0FF32A06AD6F05FFF02224FF0FF31AA
S315080077A0A06AD6F073FF01207AF030FB4FF400731D
S315080077B000222849A06AD7F0A3F8B0F5007F38D18F
S315080077C000239422CDE9073309933C23CDE90332FC
S315080077D005939623A06A03A9069370F085FF35B32F
S315080077E0287C7AF013FF0546F0B9A06AD7F044FA68
S315080077F07AF0BAFE7AF0ECFA20B14FF480700021E4
S315080078007DF0A0FA7AF0F4FA20B14FF40060002176
S315080078107DF098FADAF052FB0120D6F0EBFB0E4A1F
S315080078200E49A06AD7F065FE28460AB070BDFF204B
S31508007830D7E70725F8E700BF0DD50155200000005A
S31508007840A01A0120690345EC34ED0120911C0808B3
S3150800785044ED012034EB01209BF40D08DBF40D0800
S315080078600348044B834202D0034B03B118477047C1
S31508007870900902209009022000000000064B0749E3
S31508007880C91A891048BF0131491003D0044B0BB1FE
S3150800789001481847704700BF900902209009022046
S315080078A00000000010B5064C237843B9FFF7D8FF4F
S315080078B0044B13B10448AFF300800123237010BDB5
S315080078C0C2F30120000000008C26100808B5054BFD
S315080078D01BB105490548AFF30080BDE80840FFF72E
S315080078E0CDBF00BF00000000001B01208C26100839
S315080078F0A3F5803A704700BF174B002B08BF134B00
S315080079009D46FFF7F5FF00218B460F461348144A9C
S31508007910121ADBF0FFFE0E4B002B00D098470D4BDA
S31508007920002B00D098470020002104000D000D48C8
S31508007930002802D00C48AFF3008081F0EFFE20004B
S31508007940290082F007FD81F03BFE00BF0000080019
S3150800795000000000000000000012002000120020B5
S3150800796044FC01200000000000000000024A0260FA
S31508007970024A0260704700BF083A0E080CB10E08AA
S3150800798038B50C4600280CBF012500250CD107493F
S31508007990074824F01DFF2946064823F0F9FE14B9C6
S315080079A0054B01221A7138BD0449F1E728390E083A
S315080079B02C390E0800120020181B01204C3B0E081B
S315080079C010B5002214460388022B04D033B140F2C6
S315080079D003746CB110BD02798168FAE7094882F030
S315080079E0CAFC10B100210122F3E700210A46F0E79C
S315080079F0044882F0C6FC0028ECD1034824F0E8FECF
S31508007A00E8E700BF301B012040390E0800B585B0F5
S31508007A10002300930193029303938DF80410012821
S31508007A2003D050B105B05DF804FB0129F9D1064B26
S31508007A300393684623F064FDF4E7044B0393684612
S31508007A4023F05EFDEEE700BFC179000851B40208D5
S31508007A5008B528B1012807D00A4B1B7943B908BDD8
S31508007A60094824F0B5FEF7E7084824F0B1FEF3E725
S31508007A7000220749074844F053FA024B00221A71BC
S31508007A80EDE700BF181B01206C390E0878390E087F
S31508007A90997A00080878002010B5094882F06BFC2E
S31508007AA004461BF09DFB0023224601211BF0E4FB44
S31508007AB000B910BD0146034824F08AFEF9E700BF65
S31508007AC0301B012084390E08012800D0704708B5FC
S31508007AD04FF6FF73994200D008BD0548054B036071
S31508007AE0054B0360054A0649DBF0DEFAF4E700BFFA
S31508007AF0181B01200CB10E08083A0E0848FE012092
S31508007B006D79000810B50446044B0360044B036006
S31508007B10082183F01EFF204610BD00BF083A0E0854
S31508007B200CB10E0870B50446184803689B691849D5
S31508007B309847204623F064FDC0B9164800F0AAF815
S31508007B400446D8B9134E144A1449304682F010FC3C
S31508007B50134D01212846FEF71FFD304682F00BFC27
S31508007B600146284623F014FE204670BD04460D48FB
S31508007B7024F02EFE20469BF0F8FBDEE70A4824F0A8
S31508007B8027FE20469BF0F1FBDCE700BFB4CC0120C2
S31508007B900D7A0008301B0120517A00088179000807
S31508007BA0001200209C390E08BC390E0830B585B085
S31508007BB004681248FFF7B6FFC0B923F08BFC1048DB
S31508007BC024F006FE4FF0FF3300226946204606F0F1
S31508007BD085F80028F6D16946084823F0BFFC00233B
S31508007BE01A466946204606F079F8F2E7054605483A
S31508007BF024F0EEFD28469BF0B8FBDEE7181B0120B3
S31508007C00EC390E08D4390E0808B5024923F094FA5F
S31508007C1008BD00BFAD7B000800B585B00123ADF8EF
S31508007C2000300190037D3BB1074B0393684623F070
S31508007C3067FC05B05DF804FB437D13B1034B039362
S31508007C40F4E7034B0393F1E7217E0008457E00081D
S31508007C502D7D0008012800D070474FF6FF73994222
S31508007C60FAD110B582B0074C00230093064A0121C9
S31508007C7020461BF0D7FB054A05492046DBF014FAD7
S31508007C8002B010BD201B0120797D000848FE0120A6
S31508007C9051DE090830B583B004460023024619466A
S31508007CA0134805F087FCA061C8B1124D2846BDF0FF
S31508007CB0C8F91BF095FA0DF1070201211BF098FA95
S31508007CC02846BDF0CEF99DF8073073B10323A3709B
S31508007CD00020207520732061607503B030BD06480A
S31508007CE024F076FD40F20470F7E70123EFE700BFC2
S31508007CF0197C000808780020143A0E0808B589028D
S31508007D00084BA3FB01318909806905F0B3FC00B96A
S31508007D1008BD054824F05CFD40F205709BF025FB84
S31508007D20F6E700BFD34D6210343A0E0838B54468FA
S31508007D30A378C3B90120A0700546A3680BB12846ED
S31508007D409847237B8BB185B923694FF47A7103FB76
S31508007D5001F12046FFF7D2FF012323752169054863
S31508007D6024F036FD01E0022B00D038BD0323A370B2
S31508007D700025E2E7583A0E0808B5037A427AF3B9BD
S31508007D802AB1012A0BD0022A11D000211AE0164A7C
S31508007D9002211D209BF059FC4FF4487112E0134A4A
S31508007DA002211D209BF051FC4FF448710AE0104A4D
S31508007DB002211D209BF049FC4FF4485102E0012B9B
S31508007DC006D000210B4801234375FFF797FF08BD2E
S31508007DD00AB10021F6E7084A02211D209BF035FC6E
S31508007DE040F2DC51EEE700BF903A0E08C43A0E089E
S31508007DF0EC3A0E08301B0120203B0E0808B58069B6
S31508007E0005F062FCB0F1FF3F00D008BD034824F03E
S31508007E10DFFC40F206709BF0A8FAF6E7503B0E0826
S31508007E2010B54468237D03B910BD002323750448A3
S31508007E3024F0CEFC01221146204682F0A2FAF3E78E
S31508007E406C3B0E0810B54468637D03B910BD00236A
S31508007E506375044824F0BCFC01221146204682F0D2
S31508007E6090FAF3E7903B0E082DE9F04184B00E46F0
S31508007E7090461D4644688768A3B20093230C234A9C
S31508007E8002211D209BF0E1FB062C09D0082C12D0FC
S31508007E90B4F5407F1DD0032C29D004B0BDE8F0818D
S31508007EA0002FF3D12A78B2FA82F252090221184831
S31508007EB082F067FAF1E72B78CDF80C8002930196E9
S31508007EC0BBB200933B0C134A02211D209BF0BDFB5D
S31508007ED0E3E72B78CDF80C8002930196BBB20093AA
S31508007EE03B0C0D4A02211D209BF0AFFBD5E72B78F2
S31508007EF0CDF80C8002930196BBB200933B0C074A5F
S31508007F0002211D209BF0A1FBC7E700BFA43B0E087A
S31508007F10301B0120C43B0E080C3C0E08543C0E08CE
S31508007F2008B5034883F0D6FB89F0F6FF08BD00BF05
S31508007F30E05A0E0808B5024883F0CCFB08BD00BF1E
S31508007F40E05A0E080D4B1B68B3F1FF3F06D04FF4FD
S31508007F50801202FA03F30A4A13667047094B1B7824
S31508007F605BB9094B4FF400725A6603F5A6235B68A2
S31508007F701BB9034B4FF480121A6670474CFE01205A
S31508007F8000900044C3F3012000900050084B1B6882
S31508007F90B3F1FF3F0AD1074B1B783BB9064B5B6829
S31508007FA013F0010F02D0024B00221A60704700BF7F
S31508007FB04CFE0120C3F3012000C005504FF00063BA
S31508007FC09B6A03F17842B2F5C04F07D21A680B4B89
S31508007FD09A4207D00023037083607047002303701A
S31508007FE083607047012303704FF000639A6A9268B2
S31508007FF042609B6A9B698360704700BF07B0CD5E8D
S315080080004C4B1B78002B69D110B582B0044600236F
S315080080100193009300285FD0464B01221A7082F024
S3150800802011FB454B186075F06FFC444B1B78002B11
S3150800803058D0434B5A6E62619A6EA26103F580521C
S315080080404FF4804393663F4B5968E1613E49996016
S31508008050196E2160596E6160D3F87011A160196CB0
S31508008060E160596C21613949086C1864496C596496
S31508008070012151661B6E13F4005F44D0344BDB6854
S3150800808013F0010FFAD1FFF75DFF324B04221A668F
S315080080904FF400721A6682F027FAB0F1FF3F38D122
S315080080A02C4C082323664FF4805323664FF0006355
S315080080B023664FF400236366694601A882F0B2F985
S315080080C0019B2366009B63661C4B1B7823B1224ADF
S315080080D0116821665268626602B010BD154B02220D
S315080080E01A70704700F0B0FC0028A2D108231A4A7B
S315080080F01A491B4800686BF0B1F8002899D10F4B54
S3150800810001221A7095E7174BDB6813F0010FFAD1B5
S31508008110B9E782F0E9F940F201139842C0D00D4B55
S315080081204FF400521A664FF480421A660422C3F8C6
S315080081307021B5E7C4F301206C1B0120C5F30120AB
S31508008140008000500080004455CEAC0000C00054AA
S315080081500000044000900044701B012000710800D4
S3150800816070FE012000000450214B1B78012B03D020
S315080081701F4B01221A70704710B5044638B382F0B7
S31508008180B3F9B0F1FF3F23D122681A4B1A66626829
S315080081905A66A268C3F87021E2681A6422695A64AA
S315080081A0E36913F0010F02D0124B00229A60FFF721
S315080081B0EDFE6269104B5A66A2699A6675F0ACFBC9
S315080081C00E4B186882F044FA094B00221A7010BD4B
S315080081D082F08AF940F201139842D5D0084B012261
S315080081E05A66084BDB6813F0010FFAD1CCE700BFDB
S315080081F0C4F3012000800044008000506C1B01205D
S31508008200009000400000044070B54FF000639B6A80
S3150800821003F17842B2F5C04F2BD21A68184B9A422E
S315080082202BD1184B1B781BB1022B01D0002422E05E
S31508008230154D2846FFF7E4FE002003F025FB134CF6
S3150800824004F500534FF48036DE60002083F04FFAC1
S3150800825004F5805426614FF000639B6ADB699847F2
S3150800826004462846FFF780FF2CB9064B01221A70F0
S3150800827001E04FF48174204670BD4FF48174FAE72B
S3150800828007B0CD5EC3F301204C1B012000800044DB
S315080082902C4B1B7803B9FEE700B583B00023009387
S315080082A0019308236A462849284800686AF0D6FFD9
S315080082B050BB274BD3F840311F2B1CD9244BD3F87E
S315080082C04031203B01229A40019B13430193082326
S315080082D06A461D491D4800686AF076FF4FF000534C
S315080082E040F20B221A804FF20F025A8003F0AAFAC4
S315080082F003B05DF804FB164BD3F8403101229A40CF
S31508008300009B13430093E2E7124A9042E6D1104BD2
S31508008310D3F840311F2B0ED90D4BD3F84021203A04
S3150800832001239340019308236A46074907480068D2
S315080083306AF04AFFD2E7064BD3F84021012393405F
S315080083400093F0E7C4F301200071080070FE0120D5
S31508008350008000440BE000F038B54FF000639B6ADC
S3150800836003F17842B2F5C04F14D204461B6B03F1F1
S315080083707843B3F5C04F0DD2074D2846FFF740FEA8
S315080083804FF000639B6A1B6B5B682046984728463C
S31508008390FFF7EAFE38BD00BF781B012030B583B071
S315080083A001904FF000639B6A03F17842B2F5C04F23
S315080083B016D21B6B03F17843B3F5C04F15D20C4D9B
S315080083C02846FFF71DFE4FF000639B6A1B6B9B69EF
S315080083D0012101A8984704462846FFF7C5FE01E093
S315080083E04FF48174204603B030BD4FF48174F9E729
S315080083F0781B01202DE9F0414FF000639B6A03F1D9
S315080084007844B4F5C04F17D207460E4615461B6B7F
S31508008410BBB1DFF834804046FFF7F2FD4FF000634A
S315080084209B6A1B6B5B6A2A46314638469847044660
S315080084304046FFF799FE01E04FF401742046BDE877
S31508008440F0814FF40174F9E7781B012070B54FF0FD
S3150800845000639B6A03F17842B2F5C04F18D205460D
S315080084600C461B6B03F17843B3F5C04F14D20C4E80
S315080084703046FFF7C5FD4FF000639B6A1B6B9B6A8E
S3150800848021462846984704463046FFF76DFE01E028
S315080084904FF40174204670BD4FF40174FAE700BF2B
S315080084A0781B0120F8B50D464FF000639B6A03F16F
S315080084B07841B1F5C04F19D2044616461B6B03F135
S315080084C07843B3F5C04F15D20C4F3846FFF798FDE1
S315080084D04FF000639B6A1B6B9B6B3246294620460E
S315080084E0984704463846FFF73FFE01E040F201147C
S315080084F02046F8BD40F20114FAE700BF781B0120B8
S3150800850070B54FF000639B6A03F17842B2F5C04F2D
S3150800851018D205460C461B6B03F17843B3F5C04FDA
S3150800852014D20C4E3046FFF76BFD4FF000639B6A82
S315080085301B6BDB6B21462846984704463046FFF7F7
S3150800854013FE01E040F20114204670BD40F201140A
S31508008550FAE700BF781B0120034B5868C0F30800F0
S31508008560003818BF0120704700ED00E0F0B585B06F
S315080085700C4694469DF83410664A1278002A00F094
S31508008580BD800546BCF1070F00F2BA800A9A002A98
S3150800859000F0B8800B9A002A00F0B6800E9AB2F561
S315080085A0006F00F3B38001285BD05B4A02EB0C1224
S315080085B0127B002A00F0AC800022009201920292FF
S315080085C00392564A02EB4C1E002C4FD14FEA4C162A
S315080085D000209051CEF80400CEF80800CEF80C0022
S315080085E09EF8020040F010008EF802009EF8030084
S315080085F040F030008EF8030021B9C1B241F0030102
S315080086008EF8031000930E9B013B444A4FEA4C1028
S3150800861002EB4C11165A63F30E1616520A9B8B6020
S315080086200B9B4B60CB789DF83C2062F38303CB70A1
S31508008630012D36D0109B002B56D0374A4FEA0C1125
S3150800864002EB0C1310985050119A5A6000249C6043
S315080086505D7372466946604601F096FE204605B08F
S31508008660F0BD0C9A002AA0D12D48F8E72B4F4FEA07
S315080086704C1607EB4C120020B85150609060D06041
S31508008680907840F010009070D07840F00300D070D9
S315080086900029B7D107EB4C12C1B241F03001D170B5
S315080086A0B0E70E460A7B42F001020A73D2B242F0E4
S315080086B002020A73CA68042161F39F02F26006F196
S315080086C0100796E80F0087E80F00F2696FF00301BC
S315080086D061F39F02F2610C9B7361012CAAD10B9A7C
S315080086E0B2610C9A7260A5E7002DA6D10B4B03EB7D
S315080086F04C139A786FF304129A709EE70948AEE70E
S315080087000748ACE70648AAE70548A8E70448A6E7E5
S315080087100548A4E7C6F30120981C0120981B0120F0
S31508008720018000F0028000F0078000F0134B1B78F0
S31508008730FBB110B50446F0B181F084FF0023072B86
S3150800874013D80F4A02EB0312127B0AB10133F6E77C
S3150800875023600B4A190102EB031301241C7300243E
S31508008760545081F075FF204602E081F071FF0548FC
S3150800877010BD054870470548FAE700BFC6F3012053
S31508008780981C0120048000F0028000F0018000F0AF
S3150800879000B583B0134B1B68019300238DF8043092
S315080087A081F050FF104B1B7833B90F4B01221A701A
S315080087B081F04EFF002309E081F04AFF0B480EE0E6
S315080087C00B4A02EB0312002111730133072BF7DD65
S315080087D008238DF8073001A801F0A6FD002003B094
S315080087E05DF804FB983C0E08C6F30120038000F0F0
S315080087F0981C01200C4B1B7873B110B50C46072842
S315080088000CD869B1094B03EB00131B7B53B101F07C
S315080088100BFE2060002010BD054870470548FAE7A2
S315080088200448F8E70448F6E7C6F30120981C012037
S31508008830028000F0018000F0078000F0F8B5194BBF
S315080088401F6D5B6D1F4002D40125002402E0FEE780
S3150800885001346D00072C24D83D42F9D0124B1D6512
S315080088602301124AD358002BF2D002EB0416B16842
S315080088700131B16072682046984780F00100C0B2A5
S31508008880737B012BE4D10028E2D0094B03EB441398
S315080088901A7B6FF341021A731A7F6FF341021A7734
S315080088A0D6E7F8BD0000045000200450981C0120AB
S315080088B0981B012010B5044602E0202007E09047E7
S315080088C0DCB194FAA4F00028F7D0B0FA80F00123BE
S315080088D0834024EA0304094B03EB00135A68002A71
S315080088E0EED0064B03EB00131B7B002BE7D0034BA4
S315080088F003EB001399689047E2E710BD181D0120A5
S3150800890038B505460C4681F09DFE044B03EB05136E
S315080089105C6000221A7381F09BFE38BD181D012089
S31508008920F8B504460D4617461E4681F08BFE0CB96F
S31508008930052D1DD0012C05D0022C09D0032C0FD0F3
S31508008940FF241FE0012D21D0032DF5D1042410E0CA
S31508008950052D1DD0072D1DD0002DEFD1062408E0CA
S31508008960022D19D0052D01D0FF240BE00A2400E0C2
S31508008970002404F11003094901EB03114F608E60CE
S3150800898001230B7381F064FE2046F8BD0324F0E74B
S315080089900724EEE70824ECE70924EAE7181D012076
S315080089A0F8B505460F46164681F04CFE05F0FC0C58
S315080089B00F4BD3F824140023032B0BD85C1904F0AF
S315080089C00304644421FA04F212F0010F03D00133C0
S315080089D0DBB2F1E7FF24FF2C06D0064B03EB0413AA
S315080089E05F609E6001221A7381F032FE2046F8BD50
S315080089F000C00350181D012008B5084BD3F82404FD
S31508008A00D3F82024104000F0553020F0502003F50C
S31508008A100053C3F82004FFF74DFF08BD00C00350FC
S31508008A2008B5084BD3F82404D3F82024104000F0E6
S31508008A30AA3020F0A02003F50053C3F82004FFF75E
S31508008A4039FF08BD00C0035008B5034B1968034B2E
S31508008A5018686AF0C3FA08BD50FE012070FE0120AE
S31508008A60B0F1FF3F01D010B970470248704702487D
S31508008A70704700BF21E000F024E000F0F8B5054695
S31508008A800E4694002246DAF047FFFFF7E9FF07464D
S31508008A9028B9224631462846DAF012FE08B9384681
S31508008AA0F8BD014FFBE700BF10E000F038B50446FB
S31508008AB0DAF036FFFFF7D4FF054608B1284638BD79
S31508008AC001F052FD0146204681F01AFE0028F5D134
S31508008AD0004DF3E70EE000F0024B4FF480321A67C0
S31508008AE0704700BF00900050204B984236D009D9F5
S31508008AF01F4B984236D01F4B984222D11E4BD3F8B3
S31508008B00D0007047A3F5B703A3F55863984221D060
S31508008B1006D91A4B984212D1174BD3F8BC007047A6
S31508008B20174B984202D0174B984203D1124BD3F8F1
S31508008B30A0007047144B9842F8D0002070470020D8
S31508008B407047124B984203D10B4BD3F8C8007047B5
S31508008B5000207047084BD3F8B8007047064BD3F887
S31508008B60C0007047044BD3F8CC007047C0EA210117
S31508008B700048E801005A62020080E00F0024F40071
S31508008B8080841E0000093D0040420F0080BA8C0117
S31508008B90324B984252D029D8314B984248D009D9FD
S31508008BA0304B984247D0304B98421DD12F4BD3F8C3
S31508008BB0800070472E4B984237D005D92D4B9842E6
S31508008BC010D12A4B186F70472B4B984202D02B4B6B
S31508008BD0984202D1254B986D7047294B9842F9D097
S31508008BE0002070470020704700207047254B9842A8
S31508008BF02CD00CD9244B98422CD003F5740303F5DA
S31508008C00105398420FD1194BD3F8980070471F4B51
S31508008C10984217D01E4B984203D1144BD3F88C00B8
S31508008C2070470020704700207047104B586E7047F9
S31508008C300E4B586F70470D4B986F70470B4BD3F818
S31508008C4084007047094BD3F888007047074BD3F860
S31508008C5090007047054BD3F8940070470048E80128
S31508008C600024F400C0EA210180BA8C010080E00FDC
S31508008C70C0CF6A00405DC60080841E0000093D0022
S31508008C8040420F00007E56030090D00380D5430271
S31508008C90006CDC0238B505460C460F4BD3F880301D
S31508008CA003F00303022B0ED0032B10D0012B06D0A2
S31508008CB00023184605B1286004B1236038BD0DF0BD
S31508008CC087FF0E23F6E70DF0CFFF0723F2E70DF037
S31508008CD073FF0623EEE700BF0080005038B505464F
S31508008CE00C46174BD3F8200100F00700062823D8B6
S31508008CF0DFE800F0040A0E16121A1E00012305B159
S31508008D00286004B1236038BD0DF056FF0523F6E749
S31508008D100DF08EFF0323F2E70DF0A6FF0723EEE71B
S31508008D200DF09EFF0223EAE70DF046FF0623E6E76D
S31508008D300DF07EFF0423E2E700231846DFE700BFB5
S31508008D400080005038B505460C46164BD3F8283136
S31508008D5003F00703013B052B20D8DFE803F00313D4
S31508008D601B0F0B170DF028FF052305B1286004B16A
S31508008D70236038BD0DF020FF0623F6E70DF074FFDB
S31508008D800723F2E70DF054FF0323EEE70DF050FF3B
S31508008D900423EAE70DF064FF0223E6E700231846FA
S31508008DA0E3E700BF0080005070B582B006460D4666
S31508008DB000230193104BD3F8804104F00304022CDE
S31508008DC016D0032C0FD0012C07D000240EB1019B1E
S31508008DD0336005B12C6002B070BD002101A8FFF711
S31508008DE07DFF1024F2E70DF03FFF01900724EDE721
S31508008DF00DF036FF0190E9E70080005030B583B0EA
S31508008E0005460C4600230193154BD3F8203203F090
S31508008E100703042B21D8DFE803F0030B11161B0008
S31508008E2001230DB1019A2A6004B1236003B030BD55
S31508008E30002101A8FFF786FF1223F2E70DF014FFC1
S31508008E4001900723EDE789F06DFB01900A23E8E717
S31508008E500DF04EFF01900923E3E70023E1E700BF89
S31508008E600080005038B505460C46104BD3F8400133
S31508008E7000F00300032815D8DFE800F002080C10FC
S31508008E80012305B1286004B1236038BD89F04AFB87
S31508008E900A23F6E70DF02CFF0923F2E789F045FBD4
S31508008EA00C23EEE700231846EBE700BF00800050CE
S31508008EB030B583B005460C4600230193144BD3F80E
S31508008EC0603203F00703013B032B1FD8DFE803F0EA
S31508008ED0020E1914002101A8FFF700FF10230DB197
S31508008EE0019A2A6004B1236003B030BD002101A8AD
S31508008EF0FFF7B8FF1123F2E70DF0B6FE019007233E
S31508008F00EDE70DF0ADFE01900223E8E70023E6E762
S31508008F100080005030B583B005460C460023019307
S31508008F20144BD3F8943203F00703013B032B1FD8E5
S31508008F30DFE803F0020E1914002101A8FFF7CEFEA0
S31508008F4010230DB1019A2A6004B1236003B030BD25
S31508008F50002101A8FFF786FF1123F2E70DF084FE32
S31508008F6001900723EDE70DF07BFE01900223E8E769
S31508008F700023E6E70080005030B583B005460C466E
S31508008F80002301930C4BD3F8703203F00303012B33
S31508008F9009D0022B0DD115230DB1019A2A6004B10F
S31508008FA0236003B030BD002101A8FFF75BFF112342
S31508008FB0F2E70023F0E700BF0080005038B5054609
S31508008FC00C46134BD3F8000200F0070004281BD800
S31508008FD0DFE800F003090D111500012305B128602B
S31508008FE004B1236038BD89F09DFA0A23F6E70DF02F
S31508008FF07FFE0923F2E789F098FA0C23EEE70DF0D5
S3150800900001FE800A0F23E9E700231846E6E700BFBA
S315080090100080005038B505460C46134BD3F80802B5
S3150800902000F0070004281BD8DFE800F003090D113B
S315080090301500012305B1286004B1236038BD89F005
S3150800904071FA0A23F6E70DF053FE0923F2E789F0D1
S315080090506CFA0C23EEE70DF0D5FD800A0F23E9E73D
S3150800906000231846E6E700BF0080005038B50546DD
S315080090700C46104BD3F8400200F00300032815D81D
S31508009080DFE800F002080C10012305B1286004B1DE
S31508009090236038BD89F046FA0A23F6E70DF028FE64
S315080090A00923F2E789F041FA0C23EEE70023184674
S315080090B0EBE700BF0080005038B505460C46104B5C
S315080090C0D3F8600100F00300032815D8DFE800F0A4
S315080090D002080C10012305B1286004B1236038BDCD
S315080090E089F020FA0A23F6E70DF002FE0923F2E7D3
S315080090F089F01BFA0C23EEE700231846EBE700BFBE
S315080091000080005038B505460C46104BD3F80001D0
S3150800911000F00300032815D8DFE800F002080C1059
S31508009120012305B1286004B1236038BD0DF080FD28
S315080091300323F6E70DF0DCFD0923F2E789F0F0F9E1
S315080091400823EEE700231846EBE700BF008000502F
S31508009150B0F5207F20D00ED8B0F5007F16D020D8E5
S3150800916010B1B0F5C07F04D10F4B186FC0F30330B0
S3150800917018E0002016E0B0F5607F05D10A4BD3F859
S315080091808000C0F301100DE000200BE0064BD3F879
S315080091909000C0F3046005E0034B186FC0F380200D
S315080091A000E00020013070470080005038B50546C1
S315080091B00C46174B4FF480329A660020FFF7C8FF1B
S315080091C005FB00F0134BDA6902F4803241F671317F
S315080091D0D9635B6823F440136CB90F49884207D8F2
S315080091E000210B430B494B600AB10022CA6338BD04
S315080091F04FF48011F5E7002C07DD0849884201D8AD
S315080092000021EEE74FF48011EBE74FF44011E8E751
S315080092100090005000000350005A6202002D3101F0
S31508009220430905D0012B0DD0022B0DD0002200E0FA
S31508009230002200F01F0049B102F580520123834045
S3150800924013607047034AF4E7034AF2E702F500524F
S31508009250F4E700BF648000506880005008B580209D
S3150800926081F0CBFA034B984203D8034B4FF4803274
S315080092701A6708BD005A620200A0005000B583B004
S3150800928000230193B0F5807F00F04A8118D9B0F524
S31508009290F06F00F04A8140F2DB80B0F5206F00F0F5
S315080092A0538140F20481B0F5406F00F04881B0F573
S315080092B0486F40F00C8101A90020FFF72BFEDFE084
S315080092C0802800F2DD802428C0F0DA8024385C2863
S315080092D000F2D68001A353F820F000BF17950008C6
S315080092E017950008179500081795000817950008A0
S315080092F0819400080D95000881940008A59400083B
S315080093003595000881940008819400088194000826
S3150800931081940008819400088194000881940008CB
S3150800932081940008819400088194000881940008BB
S3150800933081940008819400088194000881940008AB
S315080093402B9500086594000881940008819400080C
S31508009350819400088194000881940008819400088B
S31508009360819400088194000881940008819400087B
S31508009370819400088194000881940008819400086B
S3150800938017950008819400088194000881940008C4
S31508009390C59400088194000881940008499500083E
S315080093A0D5940008959400083F9500088194000814
S315080093B0819400088194000881940008819400082B
S315080093C0B7920008819400088194000881940008E7
S315080093D0819400088194000881940008819400080B
S315080093E081940008819400088194000881940008FB
S315080093F081940008819400088194000881940008EB
S3150800940081940008819400088194000881940008DA
S3150800941081940008819400088194000881940008CA
S3150800942081940008819400088194000881940008BA
S3150800943081940008819400088194000881940008AA
S31508009440819400088194000881940008DF9400083C
S31508009450B0F5B06F5AD00AD9B0F5D06F6AD0B0F56A
S31508009460E06F1CD101A90020FFF700FE08E0B0F567
S31508009470607F04D101A90020FFF70CFC00E003D2AD
S31508009480019803B05DF804FBB0F5806F43D0B0F5E2
S31508009490A06FF5D101A90020FFF7B0FCF0E7B0F501
S315080094A0C06FEDD101A90020FFF7DCFCE8E7B0F5B5
S315080094B0086F04D101A90020FFF724FEE0E7B0F504
S315080094C0106FDDD101A90020FFF7A4FDD8E7B0F59C
S315080094D0286FD5D101A90020FFF74EFDD0E71D4B17
S315080094E01B6F03F00703013B032BC9D8DFE803F022
S315080094F00B02050805230193C2E703230193BFE77F
S3150800950008230193BCE702230193B9E701A90020C8
S31508009510FFF74AFCB4E701A90020FFF7DFFBAFE736
S3150800952001A9002081F036F9AAE701A90020FFF772
S31508009530C3FDA5E701A90020FFF740FDA0E701A9A3
S315080095400020FFF7FFFB9BE701A90020FFF7B0FC0F
S3150800955096E700BF00800050094B596E03F580530B
S315080095604FF480325A66074A536A23F0010353625E
S3150800957011F4803F03D1044B4FF480325A6670478A
S315080095800080005000C0075000A0005008B5FFF743
S3150800959075FE092810D012D30A38012812D80C4BA8
S315080095A04FF480025A6603F5D8335B6A13F0010F4D
S315080095B00BD04FF4FA7001E0064B188808BD4FF639
S315080095C0FF70FBE74FF6FF70F8E74FF6FF70F5E719
S315080095D0009000509E08022008B5FFF74FFE0328AA
S315080095E002D04FF6FF7008BD014B1888FBE700BF95
S315080095F09C08022010B504468020FFF73FFE03288A
S3150800960000F0AE805D4B4FF480125A665C4B45F60F
S315080096100E02C3F8802003F580524FF0A0619162D4
S3150800962003F500534FF480329A62554B9B6D13F441
S31508009630803FFAD1524B9B6D13F0804FFAD12268C6
S3150800964063681B0543EA0263227B43EA0243627BA3
S3150800965043EA0233A27B43EA8213E27B1343484A76
S315080096601361936903F00043216943EA81636169E1
S3150800967043EA0163217E43EA0143617E43EA01230B
S31508009680A17E0B439361136A23F00F03E269002A54
S3150800969046D111460B43E17E43EA81031A43384B10
S315080096A01A62E369002B3DD1354A916A354B0B4066
S315080096B094F8201043EA411394F8211043EA011361
S315080096C094F8241043EAC10343F4803393622C4B85
S315080096D09A6D2D4B9343FAD1294A02F580514FF0E2
S315080096E080738B62136923F47003A06843EA0053FE
S315080096F013614FF000438B6194F822301BB9234B5A
S315080097004FF080729A6294F8233013BB1F4B4FF4C4
S3150800971080329A621A4B9B6D13F0804FFAD118E08B
S315080097200821B7E7022B1CD0154A916A154B0B4046
S3150800973094F8201043EA411394F8221043EA01638F
S3150800974094F8241043EAC10394F8231043EA01432A
S31508009750936294F825301BB1094B0D4AC3F8802053
S3150800976010BD074B00221A619A614FF408524FF454
S315080097707F41084881F02CF8D6E700BF00900050DA
S315080097800040005AC7FFFEFE030001000060005AB1
S31508009790F1A7FFFF3440005A014B93F900007047C8
S315080097A0AC08022070B51D4B9E6AFF2834D80446C3
S315080097B09B6D13F4803F03D0194B4FF480329A62A5
S315080097C0174B4FF080729A62FFF7E6FF001903D431
S315080097D0FF2802DDFF2000E00020104DAB6923F4CE
S315080097E07F0323F47F4343EA00432402A4B22343BE
S315080097F0AB6132464FF080710A4880F0E9FFA86DE8
S3150800980010F4803000D170BD32464FF480310548DF
S3150800981080F0DEFF0020F6E72120F4E70040005A3A
S315080098200050005A2840005A08B5164B9A6A03F5A4
S3150800983080534FF480319962124B9B6D03F00303FA
S31508009840032BF9D1104B4FF0807199620D4B996D2E
S315080098500E4B8B43FAD10C4B01211965094B9B6DB5
S3150800986013F0020FFAD1074B9B6D13F0020FFAD0D3
S31508009870044B9B6D13F0020FFAD00549054880F09A
S31508009880A7FF08BD0040005A0050005A0300010017
S31508009890000001012840005A10B443784F2B28BF16
S315080098A04F231A461C4B4FF40001596603F5B8338B
S315080098B04FF4D151596203F5805102244C6003F5E7
S315080098C0005301215960154B1B6913F4803FFAD1E7
S315080098D0037842EA0323114A5361416883681B01EE
S315080098E043EA0123017B43EA4103417B0B4393602F
S315080098F0817BC37B1B0143EA4113017C43EA410395
S31508009900417C0B435360837C1BB113466FF4D152E1
S315080099105A625DF8044B70470090005000000250F0
S31508009920014B1880704700BF9E080220014B188023
S31508009930704700BF9C08022008B51B4B4FF48002F5
S315080099405A6603F5D83302225A60184B9B6813F4FB
S31508009950803FFAD1012806D0144B00225A62134BD5
S3150800996000225A6008BD0DF063F9114B984212D0D7
S3150800997003F5122303F5F863984210D000EB800133
S31508009980490A400A0B4AB2FBF0F2084BD9621A633D
S3150800999001225A62E3E745F67A120749F5E745F6E2
S315080099A01A020649F1E700BF009000500040025035
S315080099B000F0490264666666D8B80500BBCF0500A4
S315080099C0B0F5207F5DD02DD8B0F5007F4ED061D898
S315080099D010B1B0F5C07F24D110B54C1E80F006FF3B
S315080099E081F0DBF8FFF778F82B4A136F23F47043FE
S315080099F043EA043313670DF005F9284BD3F884308E
S31508009A0013F0100FF9D1254BD3F88410C1F3811147
S31508009A10C1F1020181F0B6F800F044F8FFF71EFC28
S31508009A2010BD7047B0F5607F1FD11D4BD3F8FC20E1
S31508009A3012F0807206D01846D3F8FC3023F08073F3
S31508009A40C0F8FC3001391448D0F8803023F03003D0
S31508009A5043EA0113C0F88030E2B1114AD2F8FC306B
S31508009A6043F08073C2F8FC307047704701390A4AE0
S31508009A70D2F8903023F0F85343EA0163C2F89030E5
S31508009A8070470139044A136F23F4806343EA81233C
S31508009A9013677047704700BF0080005000400050B1
S31508009AA000ED00E008B54FF4C07080F0A6FE054B47
S31508009AB0984205D902214FF42070FFF781FF08BDAF
S31508009AC00121F8E780F0FA0210B504460DF09AF87D
S31508009AD00C4BD3F8843013F0100FF9D1094BD3F897
S31508009AE08410C1F38111C1F1020181F04BF8012103
S31508009AF0002000F0E7F914B9FFF7B0FB10BDFFF737
S31508009B00D1FFF9E7004000502DE9F0410646844BA5
S31508009B104FF4C0225A6603F598335C6804F00104D2
S31508009B2003F5005301225A607E4B5B6813F0020F5F
S31508009B30FAD130687C4BD3F88430C3F3001513F0A0
S31508009B40100FF7D1784BD3F88430C3F38113012B68
S31508009B5001D02B4606E0754B984200F2D8802B467A
S31508009B6000E00133182B0AD81A0171498A58904225
S31508009B70F7D301EB031252689042F2D800E00023B3
S31508009B80192B00F0C6806A4A02EB0313D3F8088043
S31508009B90D86848BB8020FFF771FB05282BD0002723
S31508009BA0644BDB6813F0060FFAD1624B9A68C3F868
S31508009BB008809B6883EA080313F4F8137DD1B188FB
S31508009BC0F28842EA01425749CA60B268032A31D08C
S31508009BD0092A66D0082A37D15749D1F8002142F018
S31508009BE00302C1F800212FE0FEF7D2FF00F07F0044
S31508009BF048EA0008CEE780F0F9FD80F0CEFFFEF7D0
S31508009C006BFF4FF4C070FFF7A3FA0546012803D08F
S31508009C10022808D00027C3E702214FF4C070FFF7D7
S31508009C20CFFE0127BCE704214FF4C070FFF7C8FE3A
S31508009C300127B5E7A1F5A031D1F8002122F00302EA
S31508009C4042F00102C1F80021327D002A33D00422F5
S31508009C50717D01B140231343327B43EA42033269E3
S31508009C601343304A936030680CF0ACFF00262D4B46
S31508009C7003F500520721116103F5805301225A604A
S31508009C80284B1C6914F00704FAD08020FFF7F6FA6F
S31508009C90052819D0002E3ED1012C3ED03046BDE80D
S31508009CA0F0812549D1F8002122F0030242F0020290
S31508009CB0C1F80021C8E71A46CAE71E4B9A600CB1DC
S31508009CC00126D4E70126E0E7DFB90CF09BFF05463D
S31508009CD00CF072FF0CF070FF134BD3F8843013F0BE
S31508009CE0100FF9D1104BD3F88410C1F38111C1F1CB
S31508009CF00201284680F046FFFFF7D4FEFFF7AEFACA
S31508009D00C8E729464FF4C070FFF75AFEDDE700267C
S31508009D10C4E70026C2E70026C0E70126BEE700BF63
S31508009D200090005000C0015000400050005A6202E6
S31508009D30C03C0E08000001500080005010B50446D3
S31508009D40FEF7D2FE0A4B4FF400225A6620F0407006
S31508009D50084A944206D0084A944206D04FF0B442C4
S31508009D60906010BD40F00070F8E740F08070F5E7AD
S31508009D700090005040420F0080841E00044A536F32
S31508009D8023F44073417843EA01235367704700BFC1
S31508009D900040005010B504460D4A136943F0040309
S31508009DA0136110F061FE80F00BFF0A4B5B6E13F037
S31508009DB0806F03D0084B094AC3F8202430BF80F0CF
S31508009DC000FF10F08DFE04B110BD0CF01BFFFBE781
S31508009DD000ED00E00080005000E003500000FF0F97
S31508009DE010B504460B4A136943F0040313610A4B82
S31508009DF05B6E13F0806F03D0084B094AC3F8202422
S31508009E0010F032FE30BF10F06BFE04B110BD0CF03E
S31508009E10F9FEFBE700ED00E00080005000E003508B
S31508009E200000FF0F034AD36E23F0300301790B437A
S31508009E30D366704700400050F8B50446204BD3F867
S31508009E40843013F0100FF9D11D4BD3F88430C3F3C7
S31508009E5081139C422DD00CF0BBFE0646012C11D076
S31508009E6080F0E9FB0546164F07F500534FF00072E0
S31508009E705A66204680F0A8FE621E4FF4806393401F
S31508009E803B6706E0012180F07DFEE9E70C4BD3F83D
S31508009E9084300B4B5B6E13F0007F05D1084BD3F86B
S31508009EA0843013F0200FF1D0284680F0C8FB022C2E
S31508009EB000D0F8BD0021304680F064FEF9E700BF07
S31508009EC00040005010B50C46034650B1094A1278B6
S31508009ED012B1094A934208D921460220FFF7ACFF7E
S31508009EE010BD0CF075FE0346F0E721460120FFF78A
S31508009EF0A3FFF5E708260120005A620208B5027892
S31508009F00034B1A7001210020FFF7DCFF08BD00BFD4
S31508009F100826012038B52F4B4FF000425A6603F544
S31508009F200B235C6C04F001044AF6CD321A64E8B9D6
S31508009F30294B5B6B13F00103FAD1274A556815F0D4
S31508009F40010539D002F50052012151601A4622490D
S31508009F50096B11F0010F04D120498A4201D8013258
S31508009F60F5E71E498A422FD81D4625E000231A4ADE
S31508009F70126B12F0080F04D0184A934201D8013325
S31508009F80F5E7164A934221D8134B03F500522021D0
S31508009F90916203F5805301225A60002300E00133E1
S31508009FA00D4A926A12F0200F02D10C4A9342F6D952
S31508009FB00A4A93420CD8002514B1074B084A1A647A
S31508009FC0D4F094FB284638BD0725F5E70725F3E7BF
S31508009FD00725F1E700900050004009503F420F0066
S31508009FE03254FFFF10B51A4B4FF000425A6603F57C
S31508009FF00B235C6C04F001044AF6CD321A644378EC
S3150800A0005B0043F00103134AD363134B5B6B13F0F6
S3150800A0100B0FFAD1104A536823F4F873817843EA90
S3150800A02001135360C178437943EA012393600179A8
S3150800A030837943EA012313610078FFF76BFF14B1B4
S3150800A040054B064A1A64D4F051FB012010BD00BF27
S3150800A0500090005000400050004009503254FFFF65
S3150800A06010B50F2800D90F20124B5C6E03F58053EC
S3150800A0704FF000425A6603F50B235A6C02F00102B0
S3150800A0804AF6CD3119640C4B5B6B13F0800FFAD18D
S3150800A09009490B6A23F00F0303430B620AB1074A07
S3150800A0A00A64002C03DB064B4FF000425A66D4F0D4
S3150800A0B01DFB10BD00800050004009503254FFFFC0
S3150800A0C000A0005010B5134B5C6E03F580534FF09B
S3150800A0D000425A6603F50B235A6C02F001024AF64F
S3150800A0E0CD3119640C4B5B6B13F0800FFAD10A491A
S3150800A0F00B6A23F4F85343EA00230B620AB1074AB2
S3150800A1000A64002C03DB064B4FF000425A66D4F073
S3150800A110EDFA10BD00800050004009503254FFFF90
S3150800A12000A000502DE9F8430D4614461E469DF83A
S3150800A13020809DF82470072A29D8930000FA03F294
S3150800A14003219940214880F040FD4FF00009072C73
S3150800A15029D8A10005F003028A40032303FA01F176
S3150800A1601B4880F032FD5EB31A4A0123A3401360F0
S3150800A170B8F1000F26D0184A13600122A2401749E9
S3150800A180C1F8202407B3164A1360BDE8F883A2F184
S3150800A19008094FEA890300FA03F203219940114896
S3150800A1A080F013FDD3E74FEA890905F0030202FAA6
S3150800A1B009F2032101FA09F10B4880F006FDD2E7FE
S3150800A1C00A4AD2E70A4AD7E70A4ADDE700C4035033
S3150800A1D008C4035010D4035014D4035000E00350AD
S3150800A1E024D4035004C403500CC4035010E4035091
S3150800A1F014E4035024E40350F8B504460D461E46FD
S3150800A20017463AB1FBB101228A4000EB4001090129
S3150800A2101D4B5A50072D1ED8A90004EB44031B01F9
S3150800A22007FA01F20F2000FA01F11848184480F0E5
S3150800A230CCFC3FB9FEB10122AA4004EB4404240138
S3150800A240114B1A51F8BD01228A4000EB4001090161
S3150800A2500F4B5A50DEE7A5F108039B0004EB440CAC
S3150800A2604FEA0C1C07FA03F20F219940094860448B
S3150800A27080F0ABFCDDE70122AA4004EB440424018C
S3150800A280034B1A51DEE700BF40D0035034C00350D9
S3150800A29040E003503CC00350114BD3F8302422EA67
S3150800A2A00002C3F83024D3F8302401400A43C3F827
S3150800A2B03024D3F82C240243C3F82C24A3F56033A6
S3150800A2C0DB6E03F03003202B06D0064AD36E23F04C
S3150800A2D0300343F01003D366034BC3F820047047DA
S3150800A2E000C003500040005000E0035070B514460B
S3150800A2F01D469DF8106083F001030322FFF77CFFDB
S3150800A30004F1100101248C4005FA01F12046FFF7FB
S3150800A310C3FF16B1024B1C6070BD024BFBE700BFC2
S3150800A32024D4035024E4035010B504460121202008
S3150800A330FEF776FF01212120FEF772FF114B01225D
S3150800A3405A60227812069A606178A27842EA014237
S3150800A3509A61FF229A6200229A631A644FF00042B9
S3150800A3605A6503F500534FF0FF321A65152001F0C0
S3150800A3708BFAE178152081F0BEF9152081F0B7F93E
S3150800A38010BD00BF0000045070B50C46C3B20125CD
S3150800A3909D40234901F500531D65830003F1A04341
S3150800A3A003F5882326685E60637B00EB400C01EBAF
S3150800A3B00C1CCCF8603094F80AE0E37A1B0543EAF3
S3150800A3C00E4394F80CE043EA4E53CCF85C3022F086
S3150800A3D00302CCF8702080F035F9124B5D65237ABC
S3150800A3E01BB10F4A136C2B431364637A1BB10C4AD7
S3150800A3F0936B2B4393632379A27942EA0342084B72
S3150800A40003F500518A6194F805C0E27942EA0C42E4
S3150800A41003F58054A2614D639D6480F019F970BDFF
S3150800A4200000045000100450F8B50446C3B20125D4
S3150800A4309D4080F007F90A4B1F6D5E6B04EB4404E0
S3150800A44003EB04135C6E80F003F92F40C4F30A1083
S3150800A450354203D100B907B90130F8BD0020FCE741
S3150800A46000000450064B4FF480329A6603F51C33FD
S3150800A47041F67132DA6303F500530122DA60704758
S3150800A48000900050074B41F67132DA6303F500522B
S3150800A4900121D1600022DA63A3F518334FF4803224
S3150800A4A09A6670470000035041B90630084B53F8C6
S3150800A4B0200020F0F8004004400C70471630044B8A
S3150800A4C053F8200020F0F8004004400C704700BF05
S3150800A4D00080035070B50446C2F3062602F0070250
S3150800A4E041B942EA062242F440220634094B43F8AF
S3150800A4F0242070BD1146304680F0C3FB0546304621
S3150800A50080F08FFB45EA00251634024B43F82450A9
S3150800A510EFE700BF00800350054B1868B0F1FF3F16
S3150800A52004D1044BD3F89400014B1860704700BF60
S3150800A53074FE012000400050074B4FF480325A66E3
S3150800A54003F5E6239B69C3F38512827003F03F0285
S3150800A55042701B0B0370704700900050014B986CBB
S3150800A560D96C70470080E00F034B9B680A3303F0F1
S3150800A5701F030120984070470080E00F014B586880
S3150800A58080B270470080E00F08B5FFF7F7FF0A4B67
S3150800A590A3FB0023C3F38F1341339BB2422B07D08F
S3150800A5A0432B07D0412B01D0002008BD0420FCE72F
S3150800A5B00520FAE70320F8E7D34D6210074B9B689E
S3150800A5C013F0020FFAD1054B5B6813F0020FF5D1B1
S3150800A5D0024BDB69002BF1D1704700BF00800A509F
S3150800A5E0064B5B6813F0010F03D0044BDB69002BA5
S3150800A5F0F6D1024B02221A61704700BF00800A504A
S3150800A60008B5FFF7DBFF034B03F5805101224A60CB
S3150800A6101A6108BD00800A5008B5054B5B68012B16
S3150800A62000D008BDFFF7DCFF024B01225A60F8E7AD
S3150800A63000800A5000A00A5010B50446FFF7BEFF76
S3150800A640084B5B68012B05D0237843B10122054BE3
S3150800A650DA6010BDFFF7E0FFFFF7B0FFF4E700226E
S3150800A660F5E700BF00800A50D8B90B78D3B10123AB
S3150800A6704A6812B1127843EAC2034A78A2B10222A2
S3150800A68013438A6812B1127843EA82138A786AB148
S3150800A69004221343CA6812B1127843EA4223044AD1
S3150800A6A0936470470023E3E70022E9E70022F0E716
S3150800A6B000800A5008B9014B5964704700900A5047
S3150800A6C008B9014B5964704700A00A5008B9014BF4
S3150800A6D01964704700A00A5010B9024B186C7047ED
S3150800A6E00020704700800A5048B911B1012903D0EB
S3150800A6F07047044BD86C7047024B186D70470020A2
S3150800A700704700BF00800A5040B911B1012903D033
S3150800A7107047034BDA647047014B1A65704700BFF0
S3150800A72000800A5010B9024B586D704700207047D8
S3150800A73000800A5038B50446D4F054F8054DA446AE
S3150800A740BCE80F000FC59CE8030085E8030000205D
S3150800A75038BD00BF0C26012047F6FF739A427FD00A
S3150800A76002297FD870B5414B13F801E0BEF1010FFD
S3150800A77001D9002070BD3E4B03EBCE0191F802C013
S3150800A780604613F83E30012B26D0394B03EBCE0337
S3150800A7905C68002C68D0B4F90030934204DBB4F945
S3150800A7A00230934200DC1346A288FF2A2CD00021EF
S3150800A7B02826C8221D46D21A92FBF6F20A4412B27D
S3150800A7C02B4B03EBCE0393F801E0964501DD002AF7
S3150800A7D02FDA0EF1FF322CE0CB78A3EB0C03002422
S3150800A7E09C420ED2191BA3EB5101214800EBCE0067
S3150800A7F0406830F91100904201DC0C46F0E74B1E28
S3150800A800EEE76344D8B2B5E7B4F90620B4F90860B0
S3150800A8100121CFE75C331749A1FB03139B090132DA
S3150800A82012B2164696450FDD04EBC2018988994295
S3150800A8300AD304EBC2018B68B1F9061001FB053394
S3150800A840002BE7DA0023E5E7013E04EBC604A288FD
S3150800A8509A4200D31A46624500D31046C0B289E729
S3150800A860FF20704700207047002083E7503E0E08FF
S3150800A8700C260120D34D621002296FD83A4B5B5C37
S3150800A880012B6DD8394911F8331001292AD010B493
S3150800A890364901EBC3014C68002C63D0201D3349AF
S3150800A8A001EBC3018978914234D2304901EBC301E7
S3150800A8B0C978914233D92D4901EBC30393F801C0F6
S3150800A8C00CF1FF3C5FFA8CFCA388FF2B2AD00023EF
S3150800A8D0634529D2591C30F83110914224D30133EB
S3150800A8E0DBB2F5E7214901EBC301C978914200D2F1
S3150800A8F00A461E4800EBC3008078121AD2B2091A1B
S3150800A9008A4200DD0022194901EBC3035B6833F96B
S3150800A91012007047B4F902005DF8044B7047B4F9A9
S3150800A9200000F9E70123D3E74FF47A7101FB02F23D
S3150800A93000EBC3004368D31AB0F9022002EBD271C8
S3150800A94003EB610393FBF2F3B4F900009842E3DBEF
S3150800A950B4F902009842DFDC18B2DDE70448704714
S3150800A960034870470248D7E7503E0E080C260120D8
S3150800A9700080FFFF08B50348FFF7DCFE0120D3F08F
S3150800A9806AFF08BD105B0E080048704778FE012074
S3150800A99000B587B0002301930293039304930593AC
S3150800A9A002238DF804300A4A02928DF80D300622E9
S3150800A9B08DF80E208DF8133007238DF8143001A971
S3150800A9C04FF0FF30D3F0DBFF07B05DF804FB00BFA4
S3150800A9D0006A180010F1860F08D018B110F1930F0D
S3150800A9E001D0044870476FF06F0070476FF0710030
S3150800A9F0704700BF009FFFFF70B58CB004460D4638
S3150800AA0016462422002103A8D8F084FE4FF41051DC
S3150800AA10ADF80C1094B3216891B39DB389790329D5
S3150800AA201BD004291DD0022902D06FF0710012E054
S3150800AA308023ADF80E30206CC0B14FF4AE7107F02C
S3150800AA4067FC124B0093F3082A4603A9206C0FF003
S3150800AA503DFBFFF7BFFF0CB070BDC023ADF80E304D
S3150800AA60E9E74FF48073ADF80E30E4E74FF4AE71C2
S3150800AA70012007F033FC38B12064E2E70448EAE72E
S3150800AA800348E8E70248E6E70248E4E70002C003AD
S3150800AA90009FFFFF809EFFFF58B108B50346006878
S3150800AAA048B151B1186C50B10FF020FCFFF792FF76
S3150800AAB008BD044870470348FAE70248F8E7014822
S3150800AAC0F6E700BF009FFFFF88B102688AB1006CF5
S3150800AAD088B191B100B583B00023019301AB102270
S3150800AAE00FF034FCFFF776FF03B05DF804FB04486B
S3150800AAF0704703487047024870470148704700BFCF
S3150800AB00009FFFFF10B50CF0F9F80D4B0D4A0E49E2
S3150800AB100E480AF0DDFA0E4B1B7803B110BD80F023
S3150800AB2042F904460A4B1B7833B90A4B1B680A4894
S3150800AB309847074B01221A70204680F03EF9EDE748
S3150800AB402DAD080855AD080881AD08088FAD080871
S3150800AB50C7F30120B8FE0120D831012000F01F02FA
S3150800AB6001239340A0F50620A0F550604009074947
S3150800AB7051F820201A4341F82020054951F8202091
S3150800AB8022EA030241F82020704700BF3826012038
S3150800AB902426012000F01F0CA0F50620A0F5506021
S3150800ABA040090F4951F82030012202FA0CF21343EA
S3150800ABB041F8203000231A4604E00A4951F82310C8
S3150800ABC00A440133042BF8D902B17047042A05D880
S3150800ABD0034B002143F822100132F7E7704700BF04
S3150800ABE0242601203826012000F01F0CA0F5062097
S3150800ABF0A0F550604009054951F82030012202FAB3
S3150800AC000CF2534041F82030704700BF3826012027
S3150800AC1000B583B03A238DF8073001230DF10702FA
S3150800AC2005490648006868F0CFFA10B903B05DF820
S3150800AC3004FB6FF09100F9E7FF6C080070FE012035
S3150800AC4010B582B0144602B969B90094049A01464F
S3150800AC500648006868F050FB10B9002002B010BD25
S3150800AC606FF09100FAE76FF09800F7E770FE0120A1
S3150800AC702DE9F041A2B040242246002112A8D8F0BE
S3150800AC8049FD2246002102A8D8F044FD214F23E0C1
S3150800AC90DFF88C8029E022AB03EB840353F8400CE1
S3150800ACA0FFF75CFF0134AC42F5D3CDF800803B4694
S3150800ACB0102202A918480068D0F084FD0546002431
S3150800ACC007E022AB03EB840353F8800CFFF762FF1F
S3150800ACD00134AC42F5D33746104B9F4213D807F1DF
S3150800ACE010060F4B9E42D3D8B04608F1FF38CDF870
S3150800ACF000803B46102212A907480068D0F059FD8B
S3150800AD0005460024CFE7074B01221A7022B0BDE89A
S3150800AD10F08100BF006D080070FE0120FF7008007A
S3150800AD2000710800C8F301202DE9F04188B00646F5
S3150800AD300C461D4617460AB1002313600DB10023C1
S3150800AD402B601023009300232246314624480068CE
S3150800AD5068F0D2FA804600283ED12268214B9A42F2
S3150800AD6017D00FB110233B6022681F4B9A4231D18E
S3150800AD70002F31D0002D2FD02B4602AA3146184875
S3150800AD80006868F097FB18BB2B683A689B1A2B601B
S3150800AD9022E00023029303930493059306930793F3
S3150800ADA01822009202AA31460D48006868F0A4FAF3
S3150800ADB0804688B9069B6360DDE90423C4E902235B
S3150800ADC0094B23600FB118233B60DFF82080CBE7DF
S3150800ADD0804601E0DFF81880404608B0BDE8F081FB
S3150800ADE070FE0120D175E105105D175EFEDF00F0EB
S3150800ADF0FFDF00F010B59AB000238DF86730012305
S3150800AE000DF167022F493048006868F027FA10B13B
S3150800AE102E4A904253D19DF867303A2B19D04022DA
S3150800AE20002109A8D8F076FC294B2A4A934241D832
S3150800AE3003F11004284A944211D82246013A009296
S3150800AE40102209A920480068D0F0B3FC48B9234667
S3150800AE50EBE7224B3A221A6000201AB010BD1E4AB0
S3150800AE60ECE7002304930593069307930293039351
S3150800AE7002AB03AA04A90998FFF756FF184B984294
S3150800AE8012D010B1013B984211D1049B154A934246
S3150800AE9005D0154A934202D06FF09100DDE70F4BBB
S3150800AEA074221A600020D8E76FF08B00D5E76FF0A0
S3150800AEB09100D2E7094B3A221A600020CDE76FF0DD
S3150800AEC09100CAE7FF6C080070FE01200BE000F055
S3150800AED000310800FF3408000035080080FE012014
S3150800AEE0FFDF00F0D175E105105D175E10B50E4B5A
S3150800AEF01B7823B10D4B1B680D48984710BD7FF092
S3150800AF00A6FF0446084B1B7853B90948436D43F01E
S3150800AF1001034365074B1B689847034B01221A70C8
S3150800AF2020467FF09EFFE5E7C9F30120B0FE012029
S3150800AF304C260120B8FE012008B5044B1B781BB12E
S3150800AF40034B1B680348984708BD00BFC9F3012097
S3150800AF50ACFE01204C2601202DE9F04F87B00646AD
S3150800AF600D469846DDF840A091462AB1002B56D0EA
S3150800AF7040F26C739A4255D8BAF1010F55D800239E
S3150800AF80059309F110073946012007F0A7F9044689
S3150800AF9000284DD03A460021D8F0BCFBFFF7A6FFA3
S3150800AFA005AB029300230193009323460122304602
S3150800AFB0294600F009F9834600BB1F4B2360A660AB
S3150800AFC0E560C4F804A0B9F1000F1DD13B4622463E
S3150800AFD005991A48006868F0F7F8E0B16FF0910B28
S3150800AFE03A4600212046D8F095FB204607F07EF920
S3150800AFF0FFF7A2FF584607B0BDE8F08F10F18C0F97
S3150800B000EED16FF08D0BEBE74A46414604F110008E
S3150800B010D8F047FADAE70598FFF7A0FDE0E76FF002
S3150800B020860BE7E76FF0910BE4E76FF0850BE1E736
S3150800B0306FF08C0BDEE700BF105D175E70FE012017
S3150800B0402DE9F04399B04022002108A8D8F062FB08
S3150800B050002304930593069307930393534B544A8B
S3150800B060934200F2848003F11007514A97420BD8A5
S3150800B0703A46013A0092102208A94E480068D0F0D4
S3150800B08098FB0646002442E04B4AF2E7DDF80C90AE
S3150800B090049B4A4A934202D0494A93427FD109F116
S3150800B0A01001012007F01AF9054600287AD0009009
S3150800B0B0029B039A002118A800EB840C5CF8400C4C
S3150800B0C0FFF7BEFD8046002854D1049B3C4A9342B4
S3150800B0D037D03A4A93423ED0B8F1000F02D018F161
S3150800B0E0850F49D118AB03EB840353F8401C314B49
S3150800B0F0186868F023FA00284BD1039A1032002109
S3150800B1002846D8F007FB284607F0F0F80134B44281
S3150800B1102BD200230393029303AB02AA04A918A80F
S3150800B12000EB840555F8400CFFF7FEFD254B9842C9
S3150800B13032D00028AAD0013B9842A7D06FF09108D8
S3150800B14023E0059B00932B464A46DDE9060100F0FD
S3150800B15015F98046C0E7059B00932B464A46DDE96C
S3150800B1600601FFF7F9FE8046B6E73B4677E74FF05C
S3150800B17000080AE06FF09108039A10320021284669
S3150800B180D8F0C8FA284607F0B1F8404619B0BDE825
S3150800B190F0836FF09108EFE76FF08B08F5E76FF033
S3150800B1A09108F2E76FF08C08EFE700BF003108005E
S3150800B1B0FF34080070FE012000350800105D175E98
S3150800B1C0D175E105FFDF00F02DE9F0478046894695
S3150800B1D017461E467FF028FE604CA4FB0034E408A0
S3150800B1E004EBC414041B04F5062404F550645C4BF4
S3150800B1F01B7813B10025AA4668E0FDF725FC002850
S3150800B20040F09780574B1B68E82B02D0FFF730FDBC
S3150800B210F0E7FFF7EFFD002840F08E80514B1B68E2
S3150800B220742B02D0FFF724FDE4E7FFF709FF002897
S3150800B2306CD1FFF7EDFC0028DCD067E0BAF1000F0F
S3150800B24000D1A246A4F50624A4F6FF44434BA3FB6B
S3150800B2500423DB0803EBC313E31A03F5062404F5FA
S3150800B260506432E00A9B1C6000204FE0099B089A54
S3150800B27031462046FFF758FD3B4B984209D012331A
S3150800B280984206D060B1394B984209D06FF09100C8
S3150800B2903CE02146364B186868F050F9002851D131
S3150800B2A0B268F3684B4508BF424531D0A4F5062479
S3150800B2B0A4F6FF44294BA3FB0423DB0803EBC313C3
S3150800B2C0E31A03F5062404F550640135802D27D8C2
S3150800B2D0A4F5062CACF5506C4FEA5C1C254B53F8CC
S3150800B2E02C3004F01F02D34013F0010FBED1224BBD
S3150800B2F053F82C30D34013F0010F9FD1FFB1BAF1A8
S3150800B300000FAFD00A9BC3F800A00020BDE8F08765
S3150800B31017B17368012B18D00A9B1C600020F5E74B
S3150800B320B7B1BAF1000F16D00A9BC3F800A00020E7
S3150800B330ECE76FF09100E9E76FF09100E6E76FF050
S3150800B3408B00E3E76FF08B00E0E76FF08400DDE742
S3150800B3506FF08B00DAE76FF08B00D7E7813FE00FDD
S3150800B360C8F3012080FE0120FFDF00F0FEDF00F0B9
S3150800B37070FE012038260120242601202DE9F04FF1
S3150800B3808BB006460D469846DDF850A091460AB1A0
S3150800B390002B52D0BAF1010F52D80023099309F1B4
S3150800B3A018073946012006F099FF044600284AD0B6
S3150800B3B03A460021D8F0AEF9FFF798FD09AB02939B
S3150800B3C000230193009304AB012230462946FFF778
S3150800B3D0FBFE834600BB1D4B2360A660E560C4F8F0
S3150800B3E010A0B9F1000F1DD13B462246099918480D
S3150800B3F0006867F0E9FEE0B16FF0910B3A4600216C
S3150800B4002046D8F087F9204606F070FFFFF794FD2E
S3150800B41058460BB0BDE8F08F10F18C0FEED16FF0E7
S3150800B4208D0BEBE74A46414604F11800D8F039F887
S3150800B430DAE70998FFF792FBE0E76FF0860BE7E794
S3150800B4406FF0850BE4E76FF08C0BE1E7D175E1054A
S3150800B45070FE01202DE9F0478CB007460E461546CA
S3150800B460DDF85080DDF854A0994673B1BAF1000FA3
S3150800B47051D0B8F1000F51D0B8F1005F51D3C3F1E4
S3150800B480005303F5802398454ED800240894099460
S3150800B4900A940B9407940694FFF728FD05AB0293CC
S3150800B4A007AB019306AB009308AB224638463146F4
S3150800B4B0FFF78AFE0446F8B9079BB9F1000F06D0D4
S3150800B4C0AB4206D80BBB25B16FF0860414E0AB423D
S3150800B4D01ED35B1B4B4515D2CAF80030DAF800308C
S3150800B4E00093069B2B44424605991148006867F06D
S3150800B4F003FF08B16FF09104FFF71EFD20460CB05C
